:020000040000FA
:100000000C945D000C9485000C9485000C94850084
:100010000C9485000C9485000C9485000C9485004C
:100020000C9485000C9485000C9485000C9485003C
:100030000C9485000C9485000C9485000C9485002C
:100040000C9484020C9485000C9452020C942C02A3
:100050000C9485000C9485000C9485000C9485000C
:100060000C9485000C94850000000008000201003B
:100070000003040700000000000000000000000072
:10008000250028002B0000000000240027002A0083
:10009000040404040404040402020202020203032E
:1000A0000303030301020408102040800102040836
:1000B00010200102040810202F0511241FBECFEFCD
:1000C000D8E0DEBFCDBF11E0A0E0B1E0E8ECFAE09F
:1000D00002C005900D92A431B107D9F721E0A4E147
:1000E000B1E001C01D92AE3BB207E1F710E0CDE5F3
:1000F000D0E004C02197FE010E945C05CC35D107F9
:10010000C9F70E94CE020C9462050C94000090E0A6
:10011000FC01EC55FF4F249180579F4FFC018491C7
:10012000882399F090E0880F991FFC01EA57FF4F50
:10013000A591B491FC01E458FF4F859194918FB73C
:10014000F894EC91E22BEC938FBF0895AF92BF929D
:10015000CF92DF92EF92FF920F931F93CF93DF9393
:100160006C017B018B01040F151FEB015E01AE18C2
:10017000BF08C017D10759F06991D601ED91FC91E4
:100180000190F081E02DC6010995892B79F7C50111
:10019000DF91CF911F910F91FF90EF90DF90CF9063
:1001A000BF90AF90089541E050E062E171E081E2DC
:1001B00091E00C94A600FC01538D448D252F30E076
:1001C000842F90E0821B930B541710F0CF96089564
:1001D00001970895FC01918D828D981761F0A28D91
:1001E000AE0FBF2FB11D5D968C91928D9F5F9F7357
:1001F000928F90E008958FEF9FEF0895FC01918D0D
:10020000828D981731F0828DE80FF11D858D90E079
:1002100008958FEF9FEF0895FC01918D228D892F16
:1002200090E0805C9F4F821B91098F7399270895FE
:1002300081E291E00E940C0121E0892B09F420E089
:10024000822F089580E090E0892B29F00E94180108
:1002500081110C9400000895FC01A48DA80FB92F02
:10026000B11DA35ABF4F2C91848D90E001968F73DE
:100270009927848FA689B7892C93A089B1898C91FD
:10028000837080648C93938D848D981306C002884C
:10029000F389E02D80818F7D80830895EF92FF9216
:1002A0000F931F93CF93DF93EC0181E0888F9B8D99
:1002B0008C8D98131AC0E889F989808185FF15C053
:1002C0009FB7F894EE89FF896083E889F989808176
:1002D0008370806480839FBF81E090E0DF91CF9145
:1002E0001F910F91FF90EF900895F62E0B8D10E067
:1002F0000F5F1F4F0F731127E02E8C8D8E110CC0D6
:100300000FB607FCFACFE889F989808185FFF5CF20
:10031000CE010E942C01F1CFEB8DEC0FFD2FF11DD2
:10032000E35AFF4FF0829FB7F8940B8FEA89FB895D
:1003300080818062CFCFCF93DF93EC01888D8823BB
:10034000B9F0AA89BB89E889F9898C9185FD03C038
:10035000808186FD0DC00FB607FCF7CF8C9185FF1D
:10036000F2CF808185FFEDCFCE010E942C01E9CF35
:10037000DF91CF91089590E0FC01E859FF4F24915F
:10038000FC01EC55FF4F3491FC01E057FF4FE49125
:10039000EE23C9F0222339F0233001F1A8F42130F3
:1003A00019F1223029F1F0E0EE0FFF1FE458FF4F62
:1003B000A591B4918FB7F894EC91611126C0309556
:1003C0003E233C938FBF08952730A9F02830C9F011
:1003D000243049F7809180008F7D03C08091800098
:1003E0008F7780938000DFCF84B58F7784BDDBCF9C
:1003F00084B58F7DFBCF8091B0008F778093B00064
:10040000D2CF8091B0008F7DF9CF3E2BDACF3FB7AE
:10041000F8948091190190911A01A0911B01B0915B
:100420001C0126B5A89B05C02F3F19F00196A11D00
:10043000B11D3FBFBA2FA92F982F8827BC01CD012E
:10044000620F711D811D911D42E0660F771F881F8D
:10045000991F4A95D1F708951F920F920FB60F92E8
:1004600011242F933F934F935F936F937F938F93B9
:100470009F93AF93BF93EF93FF9381E291E00E942C
:100480002C01FF91EF91BF91AF919F918F917F913F
:100490006F915F914F913F912F910F900FBE0F90F1
:1004A0001F9018951F920F920FB60F9211242F9341
:1004B0008F939F93EF93FF93E0913101F09132017D
:1004C0008081E0913701F091380182FD1BC090815D
:1004D00080913A018F5F8F7320913B01821741F029
:1004E000E0913A01F0E0EF5DFE4F958F80933A0185
:1004F000FF91EF919F918F912F910F900FBE0F90D1
:100500001F9018958081F4CF1F920F920FB60F9213
:1005100011242F933F938F939F93AF93BF93809119
:10052000150190911601A0911701B0911801309119
:10053000140123E0230F2D3758F50196A11DB11D9D
:10054000209314018093150190931601A093170135
:10055000B09318018091190190911A01A0911B018B
:10056000B0911C010196A11DB11D809319019093BA
:100570001A01A0931B01B0931C01BF91AF919F91F1
:100580008F913F912F910F900FBE0F901F90189554
:1005900026E8230F0296A11DB11DD2CF789484B511
:1005A000826084BD84B5816084BD85B5826085BD6F
:1005B00085B5816085BD80916E00816080936E00FD
:1005C00010928100809181008260809381008091EF
:1005D00081008160809381008091800081608093A0
:1005E00080008091B10084608093B1008091B00060
:1005F00081608093B00080917A00846080937A005B
:1006000080917A00826080937A0080917A00816084
:1006100080937A0080917A00806880937A001092AB
:10062000C100E0913101F091320182E08083E091DC
:100630002D01F0912E011082E0912F01F0913001F7
:100640008FEC808310923901E0913501F0913601F1
:1006500086E08083E0913301F091340180818061F4
:100660008083E0913301F091340180818860808340
:10067000E0913301F0913401808180688083E091C2
:100680003301F091340180818F7D808382E00E946C
:10069000870083E00E94870084E00E94870085E055
:1006A0000E94870086E00E94870087E00E94870002
:1006B00000E010E098EEE92E93E0F92ED1E0809171
:1006C0001F0190912001833091054CF0883E9340AA
:1006D00031F00E94D300F0922001E0921F0181E2EC
:1006E00091E00E940C011816190664F481E291E071
:1006F0000E94EA0080931D01D0931E0110922001F8
:1007000010921F0180911E01882309F41DC1C09120
:100710001D01CC3609F4CBC00CF041C0C53609F43C
:10072000A2C00CF5C13609F486C044F4C03209F405
:100730008CC160E0CE3271F160E07EC0C33609F456
:1007400080C061E0C4360CF481C161E082E00E94A7
:10075000BB0160E083E00E94BB0160E084E00E9496
:10076000BB0161E08DC0C83609F499C05CF4C6369F
:1007700009F48FC061E0C736F9F682E00E94BB0140
:1007800061E0E8CFCA3609F490C060E0CB360CF4E3
:1007900081C061E082E00E94BB0160E08DC0C33790
:1007A00009F4ADC00CF5CF3609F499C084F4CD3608
:1007B00009F48BC0CE3609F0BFCF61E082E00E9421
:1007C000BB0160E083E00E94BB0161E0C7CFC1379D
:1007D00009F48FC061E0C2370CF492C061E082E09E
:1007E0000E94BB0161E080C0C73709F404C16CF40A
:1007F000C53709F48AC060E0C6370CF47BC061E0FD
:1008000082E00E94BB0161E085C0C93709F413C1D1
:100810000CF403C1CA3709F08FCF61E082E00E9477
:10082000BB0160E083E00E94BB0161E084E00E94C4
:10083000BB0160E0EDC061E082E00E94BB0160E0CE
:1008400009C161E082E00E94BB0160E083E00E9498
:10085000BB0160E084E00E94BB0161E085E00E9492
:10086000BB0160E011C061E082E00E94BB0160E07A
:1008700083E00E94BB0160E084E00E94BB0160E075
:1008800085E00E94BB0161E086E00E94BB0160E060
:1008900051C061E082E00E94BB0161E0D7CF61E01E
:1008A00082E00E94BB0161E0E3CF60E066CF61E0DF
:1008B00082E00E94BB0161E083E00E94BB0161E035
:1008C00084E00E94BB0160E0C9CF61E082E00E9449
:1008D000BB0160E083E00E94BB0161E0BBCF61E04F
:1008E00082E00E94BB0160E083E00E94BB0161E006
:1008F000C3CF61E082E00E94BB0161E063CF60E0B2
:1009000082E00E94BB0161E0E5CF61E082E00E94ED
:10091000BB0160E083E00E94BB0161E084E00E94D3
:10092000BB0160E085E00E94BB0160E086E00E94C0
:10093000BB0161E087E00E94BB016C2F81E291E086
:100940000E944E0110921E0180911F019091200182
:10095000833091052CF401969093200180931F0120
:100960000E9407022B013C0188EE882E83E0982E1E
:10097000A12CB12C0E9407026419750986099709F8
:10098000683E734081059105A8F381E0881A9108BB
:10099000A108B10828EE420E23E0521E611C711C12
:1009A00081149104A104B10429F70E94D30060E0EE
:1009B00082E00E94BB0160E083E00E94BB0160E036
:1009C00084E00E94BB0160E085E00E94BB0160E022
:1009D00086E00E94BB0160E087E00E94BB01011538
:1009E000110509F46CCE0E941801882309F467CE22
:1009F0000E94000064CE60E082E00E94BB0161E0E2
:100A000083E00E94BB0160E084E00E94BB0161E0E2
:100A100085E00E94BB0161E089CF61E082E00E9435
:100A2000BB0160E083E00E94BB0161E084E00E94C2
:100A3000BB0161E077CF61E082E00E94BB0160E032
:100A400083E00E94BB0161E0DFCF60E082E00E94B2
:100A5000BB0161E083E00E94BB0160E031CFE1E2D5
:100A6000F1E01382128288EE93E0A0E0B0E084838C
:100A70009583A683B78384E091E09183808385EC9E
:100A800090E09587848784EC90E09787868780EC58
:100A900090E0918B808B81EC90E0938B828B82EC49
:100AA00090E0958B848B86EC90E0978B868B118EF3
:100AB000128E138E148E0895EE0FFF1F0590F49181
:100AC000E02D0994F894FFCF000000004E01A6002D
:0C0AD000DB009B010C01EA00FE000A00A4
:107E0000112484B714BE81FFF0D085E080938100F7
:107E100082E08093C00088E18093C10086E0809377
:107E2000C20080E18093C4008EE0C9D0259A86E02C
:107E300020E33CEF91E0309385002093840096BBD3
:107E4000B09BFECF1D9AA8958150A9F7CC24DD24C4
:107E500088248394B5E0AB2EA1E19A2EF3E0BF2EE7
:107E6000A2D0813461F49FD0082FAFD0023811F036
:107E7000013811F484E001C083E08DD089C08234E0
:107E800011F484E103C0853419F485E0A6D080C0E4
:107E9000853579F488D0E82EFF2485D0082F10E0AE
:107EA000102F00270E291F29000F111F8ED06801E7
:107EB0006FC0863521F484E090D080E0DECF843638
:107EC00009F040C070D06FD0082F6DD080E0C81688
:107ED00080E7D80618F4F601B7BEE895C0E0D1E017
:107EE00062D089930C17E1F7F0E0CF16F0E7DF06D8
:107EF00018F0F601B7BEE89568D007B600FCFDCFD4
:107F0000A601A0E0B1E02C9130E011968C91119780
:107F100090E0982F8827822B932B1296FA010C0160
:107F200087BEE89511244E5F5F4FF1E0A038BF0790
:107F300051F7F601A7BEE89507B600FCFDCF97BE46
:107F4000E89526C08437B1F42ED02DD0F82E2BD052
:107F50003CD0F601EF2C8F010F5F1F4F84911BD097
:107F6000EA94F801C1F70894C11CD11CFA94CF0C13
:107F7000D11C0EC0853739F428D08EE10CD085E9AC
:107F80000AD08FE07ACF813511F488E018D01DD067
:107F900080E101D065CF982F8091C00085FFFCCF94
:107FA0009093C60008958091C00087FFFCCF809118
:107FB000C00084FD01C0A8958091C6000895E0E648
:107FC000F0E098E1908380830895EDDF803219F02E
:107FD00088E0F5DFFFCF84E1DECF1F93182FE3DFCA
:107FE0001150E9F7F2DF1F91089580E0E8DFEE27F6
:047FF000FF270994CA
:027FFE00040479
:00000001FF
