:020000040000FA
:100000000C9463000C948B000C948B000C948B006C
:100010000C948B000C948B000C948B000C948B0034
:100020000C948B000C948B000C948B000C948B0024
:100030000C948B000C948B000C948B000C948B0014
:100040000C94BF020C948B000C942F030C940903A6
:100050000C948B000C948B000C948B000C948B00F4
:100060000C948B000C948B000000000023002600F1
:10007000290000000008000201000003040700003E
:1000800000000000000000000000250028002B00F8
:1000900000000000240027002A00040404040404D3
:1000A0000404020202020202030303030303010227
:1000B00004081020408001020408102001020408F6
:1000C00010206103B00911241FBECFEFD8E0DEBFBE
:1000D000CDBF22E0A4E5B1E001C01D92A031B2077E
:1000E000E1F711E0A0E0B1E0EAEEF7E102C005902F
:1000F0000D92A435B107D9F710E0C2E6D0E004C0F4
:100100002197FE010E94F009C136D107C9F70E946C
:10011000D5030C94E80B0C940000E9E6F1E0A0890B
:10012000B18982E08C93A485B5851C92A685B7859C
:100130008FEC8C93108EA489B58986E08C93A2896C
:10014000B3898C9180618C93A289B3898C918860EA
:100150008C93A289B3898C9180688C930288F389EF
:10016000E02D80818F7D80830895CF93DF9390E091
:10017000FC01E255FF4F249186569F4FFC0184916C
:100180008823C1F090E0880F991FFC01E057FF4FD2
:10019000C591D491FC01EA57FF4FA591B4919FB747
:1001A000F8948881E22FE0958E2388838C91E82350
:1001B000EC939FBFDF91CF910895AF92BF92CF9202
:1001C000DF92EF92FF920F931F93CF93DF936C0117
:1001D0007B018B01040F151FEB015E01AE18BF08F8
:1001E000C017D10759F06991D601ED91FC910190AA
:1001F000F081E02DC6010995892B79F7C501DF91C2
:10020000CF911F910F91FF90EF90DF90CF90BF9013
:10021000AF900895FC01538D448D252F30E0842F3D
:1002200090E0821B930B541710F0CF96089501971E
:100230000895FC01918D828D981761F0A28DAE0F0B
:10024000BF2FB11D5D968C91928D9F5F9F73928F92
:1002500090E008958FEF9FEF0895FC01918D828DBE
:10026000981731F0828DE80FF11D858D90E008958B
:100270008FEF9FEF0895FC01918D228D892F90E0E3
:10028000805C9F4F821B91098F739927089589E69F
:1002900091E00E943B0121E0892B09F420E0822FAC
:1002A000089580E090E0892B29F00E944701811198
:1002B0000C9400000895FC01A48DA80FB92FB11D66
:1002C000A35ABF4F2C91848D90E001968F7399278C
:1002D000848FA689B7892C93A089B1898C9183706A
:1002E00080648C93938D848D981306C00288F38963
:1002F000E02D80818F7D80830895EF92FF920F9390
:100300001F93CF93DF93EC0181E0888F9B8D8C8DC1
:1003100098131AC0E889F989808185FF15C09FB7B5
:10032000F894EE89FF896083E889F9898081837078
:10033000806480839FBF81E090E0DF91CF911F9127
:100340000F91FF90EF900895F62E0B8D10E00F5F48
:100350001F4F0F731127E02E8C8D8E110CC00FB61E
:1003600007FCFACFE889F989808185FFF5CFCE01B6
:100370000E945B01F1CFEB8DEC0FFD2FF11DE35AD5
:10038000FF4FF0829FB7F8940B8FEA89FB89808139
:100390008062CFCFCF93DF93682F89E691E00E94F0
:1003A0007D01EC0142E050E068E171E089E691E016
:1003B0000E94DD008C0F9D1FDF91CF910895CF9398
:1003C000DF93EC01888D8823B9F0AA89BB89E8897D
:1003D000F9898C9185FD03C0808186FD0DC00FB623
:1003E00007FCF7CF8C9185FFF2CF808185FFEDCFA1
:1003F000CE010E945B01E9CFDF91CF91089590E09B
:10040000FC01EE58FF4F2491FC01E255FF4F34915F
:10041000FC01E656FF4FE491EE23C1F1222339F0AF
:100420002330E9F090F4213001F1223011F1F0E0B5
:10043000EE0FFF1FE859FF4FA591B491EC91E32314
:1004400081E090E029F580E008952730A9F0283078
:10045000C9F0243061F7809180008F7D03C08091C6
:1004600080008F7780938000E2CF84B58F7784BD42
:10047000DECF84B58F7DFBCF8091B0008F778093E6
:10048000B000D5CF8091B0008F7DF9CF80E090E0B3
:10049000089510925F0110925E0110925D0110921A
:1004A0005C0110925B0110925A0110925901109256
:1004B0005801109257011092560110925501109256
:1004C00054010895CF93DF93EC018091060290913F
:1004D0000702009759F020910802309109022C1769
:1004E0003D0720F081E0DF91CF910895BE016F5F5D
:1004F0007F4F0E941B0B009789F090930702809317
:100500000602D0930902C093080220910A0230919A
:100510000B02232B39F7FC011082E4CF80E0E3CFFC
:100520000F931F93CF93DF93FC0101900020E9F715
:100530003197E81BF90BE9F08C01C0910A02D091C8
:100540000B02CE0FDF1FCE010E946202882391F0C2
:10055000209106023091070280910A0290910B02CD
:10056000B801820F931F0E94E10BD0930B02C0933E
:100570000A0281E0DF91CF911F910F9108951F92A0
:100580000F920FB60F9211242F933F938F939F9347
:10059000AF93BF938091650190916601A09167012F
:1005A000B09168013091640123E0230F2D3758F595
:1005B0000196A11DB11D2093640180936501909364
:1005C0006601A0936701B0936801809160019091EA
:1005D0006101A0916201B09163010196A11DB11D5D
:1005E0008093600190936101A0936201B0936301D5
:1005F000BF91AF919F918F913F912F910F900FBE1F
:100600000F901F90189526E8230F0296A11DB11D8B
:10061000D2CF1F920F920FB60F9211242F933F93B8
:100620004F935F936F937F938F939F93AF93BF93FA
:10063000EF93FF9389E691E00E945B01FF91EF91B8
:10064000BF91AF919F918F917F916F915F914F91EA
:100650003F912F910F900FBE0F901F9018951F92F2
:100660000F920FB60F9211242F938F939F93EF93B6
:10067000FF93E0917901F0917A018081E0917F010F
:10068000F091800182FD1BC09081809182018F5F7B
:100690008F7320918301821741F0E0918201F0E095
:1006A000E759FE4F958F80938201FF91EF919F91C3
:1006B0008F912F910F900FBE0F901F9018958081F2
:1006C000F4CF10926C0110926B0188EE93E0A0E0E1
:1006D000B0E080936D0190936E01A0936F01B09391
:1006E00070018AE091E090936A018093690185EC42
:1006F00090E0909376018093750184EC90E0909364
:1007000078018093770180EC90E090937A01809358
:10071000790181EC90E090937C0180937B0182ECE5
:1007200090E090937E0180937D0186EC90E0909321
:10073000800180937F0110928201109283011092B8
:100740008401109285011092070210920602109205
:1007500009021092080210920B0210920A0290E015
:1007600080E00E946202209106023091070281110E
:1007700013C02115310519F0C9010E94920A109287
:1007800007021092060210920B0210920A021092B7
:10079000090210920802089510920B0210920A02A8
:1007A0006AE171E0C9010C94E10B789484B5826030
:1007B00084BD84B5816084BD85B5826085BD85B505
:1007C000816085BD80916E00816080936E00109283
:1007D00081008091810082608093810080918100FE
:1007E000816080938100809180008160809380008F
:1007F0008091B10084608093B1008091B0008160ED
:100800008093B00080917A00846080937A00809118
:100810007A00826080937A0080917A008160809370
:100820007A0080917A00806880937A001092C100EB
:100830000E948D0082E00E94B50083E00E94B50016
:1008400084E00E94B50085E00E94B50086E00E9429
:10085000B50087E00E94B50088E00E94B50089E0FD
:100860000E94B5008AE00E94B5000E948D00C0E0A1
:10087000D0E082E00E94FF018130910521F4909345
:100880005F0180935E0183E00E94FF01813091054A
:1008900021F490935D0180935C0184E00E94FF014C
:1008A0008130910521F490935B0180935A0185E09A
:1008B0000E94FF018130910521F4909359018093AA
:1008C000580186E00E94FF018130910521F4909348
:1008D00057018093560187E00E94FF018130910506
:1008E00021F4909355018093540188E00E94FF0108
:1008F000019709F0ECC480915E0190915F0101972E
:1009000039F580915C0190915D01892B09F5809109
:100910005A0190915B01892BD9F4809158019091F3
:100920005901892BA9F48091560190915701892B87
:1009300079F48091540190915501892B49F481E615
:100940000E94CA018BE191E00E9490020E9449023C
:1009500080915E0190915F01019739F580915C0172
:1009600090915D01019709F580915A0190915B0189
:10097000892BD9F48091580190915901892BA9F4C0
:100980008091560190915701892B79F480915401FF
:1009900090915501892B49F482E60E94CA018DE1AC
:1009A00091E00E9490020E94490280915E01909124
:1009B0005F01019739F580915C0190915D01892B70
:1009C00009F580915A0190915B01892BD9F48091AE
:1009D0005801909159010197A9F480915601909185
:1009E0005701892B79F48091540190915501892BFD
:1009F00049F483E60E94CA018FE191E00E949002CF
:100A00000E94490280915E0190915F01019739F542
:100A100080915C0190915D01892B09F580915A01CB
:100A200090915B01892BD9F48091580190915901E3
:100A30000197A9F48091560190915701019779F49B
:100A40008091540190915501892B49F484E60E94CC
:100A5000CA0181E291E00E9490020E9449028091C5
:100A60005E0190915F01019739F580915C01909151
:100A70005D01892B09F580915A0190915B01892BC9
:100A8000D9F48091580190915901892BA9F4809152
:100A9000560190915701019779F4809154019091FA
:100AA0005501892B49F485E60E94CA0183E291E051
:100AB0000E9490020E94490280915E0190915F0124
:100AC000019739F580915C0190915D01019709F5DD
:100AD00080915A0190915B01892BD9F48091580142
:100AE000909159010197A9F4809156019091570175
:100AF000892B79F48091540190915501892B49F407
:100B000086E60E94CA0185E291E00E9490020E945E
:100B1000490280915E0190915F01019739F58091C2
:100B20005C0190915D01019709F580915A019091C6
:100B30005B01892BD9F4809158019091590101975B
:100B4000A9F48091560190915701019779F4809111
:100B5000540190915501892B49F487E60E94CA01FE
:100B600087E291E00E9490020E94490280915E011A
:100B700090915F01019739F580915C0190915D0141
:100B8000019709F580915A0190915B01892BD9F465
:100B90008091580190915901892BA9F480915601B7
:100BA00090915701019779F48091540190915501EA
:100BB000892B49F488E60E94CA0189E291E00E94EB
:100BC00090020E94490280915E0190915F01892B01
:100BD00039F580915C0190915D01019709F5809153
:100BE0005A0190915B01892BD9F480915801909121
:100BF00059010197A9F48091560190915701892BD1
:100C000079F48091540190915501892B49F489E63A
:100C10000E94CA018BE291E00E9490020E94490268
:100C200080915E0190915F01892B39F580915C0183
:100C300090915D01019709F580915A0190915B01B6
:100C4000892BD9F480915801909159010197A9F409
:100C50008091560190915701019779F48091540148
:100C600090915501892B49F48AE60E94CA018DE2D0
:100C700091E00E9490020E94490280915E01909151
:100C80005F01019739F580915C0190915D01892B9D
:100C900009F580915A0190915B010197D9F48091F7
:100CA000580190915901892BA9F480915601909196
:100CB0005701892B79F48091540190915501892B2A
:100CC00049F48BE60E94CA018FE291E00E949002F3
:100CD0000E94490280915E0190915F01019739F570
:100CE00080915C0190915D01019709F580915A0115
:100CF00090915B010197D9F480915801909159012D
:100D0000892BA9F48091560190915701892B79F490
:100D10008091540190915501892B49F48CE60E94F1
:100D2000CA0181E391E00E9490020E9449028091F1
:100D30005E0190915F01019739F580915C0190917E
:100D40005D01892B09F580915A0190915B01019712
:100D5000D9F480915801909159010197A9F480919B
:100D6000560190915701892B79F48091540190910B
:100D70005501892B49F48DE60E94CA0183E391E075
:100D80000E9490020E94490280915E0190915F0151
:100D9000019739F580915C0190915D01892B09F5EE
:100DA00080915A0190915B010197D9F4809158018B
:100DB000909159010197A9F48091560190915701A2
:100DC000019779F48091540190915501892B49F450
:100DD0008EE60E94CA0185E391E00E9490020E9483
:100DE000490280915E0190915F01019739F58091F0
:100DF0005C0190915D01892B09F580915A019091D8
:100E00005B010197D9F48091580190915901892B88
:100E1000A9F48091560190915701019779F480913E
:100E2000540190915501892B49F48FE60E94CA0123
:100E300087E391E00E9490020E94490280915E0146
:100E400090915F01019739F580915C0190915D016E
:100E5000019709F580915A0190915B010197D9F4AE
:100E600080915801909159010197A9F48091560100
:100E700090915701892B79F48091540190915501FB
:100E8000892B49F480E70E94CA0189E391E00E941E
:100E900090020E94490280915E0190915F0101974A
:100EA00039F580915C0190915D01019709F5809180
:100EB0005A0190915B010197D9F48091580190916A
:100EC00059010197A9F4809156019091570101971A
:100ED00079F48091540190915501892B49F481E76F
:100EE0000E94CA018BE391E00E9490020E94490295
:100EF00080915E0190915F01019739F580915C01CD
:100F000090915D01019709F580915A0190915B01E3
:100F10000197D9F48091580190915901892BA9F436
:100F20008091560190915701019779F48091540175
:100F300090915501892B49F482E70E94CA018DE303
:100F400091E00E9490020E94490280915E0190917E
:100F50005F01892B39F580915C0190915D010197CA
:100F600009F580915A0190915B010197D9F4809124
:100F70005801909159010197A9F4809156019091DF
:100F80005701892B79F48091540190915501892B57
:100F900049F483E70E94CA018FE391E00E94900226
:100FA0000E94490280915E0190915F01892B39F581
:100FB00080915C0190915D01019709F580915A0142
:100FC00090915B010197D9F480915801909159015A
:100FD0000197A9F48091560190915701019779F4F6
:100FE0008091540190915501892B49F484E70E9426
:100FF000CA0181E491E00E9490020E94490280911E
:101000005E0190915F01019739F580915C019091AB
:101010005D01892B09F580915A0190915B0101973F
:10102000D9F48091580190915901892BA9F48091AC
:10103000560190915701892B79F480915401909138
:101040005501019749F485E70E94CA0183E491E0C4
:101050000E9490020E94490280915E0190915F017E
:10106000019739F580915C0190915D01019709F537
:1010700080915A0190915B010197D9F480915801B8
:1010800090915901892BA9F48091560190915701B3
:10109000892B79F48091540190915501019749F47D
:1010A00086E70E94CA0185E491E00E9490020E94B6
:1010B000490280915E0190915F01892B39F5809101
:1010C0005C0190915D01019709F580915A01909121
:1010D0005B01892BD9F480915801909159010197B6
:1010E000A9F48091560190915701019779F480916C
:1010F000540190915501019749F487E70E94CA0174
:1011000087E491E00E9490020E94490280915E0172
:1011100090915F01019739F580915C0190915D019B
:10112000892B09F580915A0190915B010197D9F4BF
:1011300080915801909159010197A9F4809156012D
:1011400090915701892B79F4809154019091550128
:10115000019749F488E70E94CA0189E491E00E945E
:1011600090020E94490280915E0190915F01019777
:1011700039F580915C0190915D01892B09F5809191
:101180005A0190915B010197D9F480915801909197
:1011900059010197A9F48091560190915701019747
:1011A00079F48091540190915501019749F489E7B0
:1011B0000E94CA018BE491E00E9490020E944902C1
:1011C00080915E0190915F01019739F580915C01FA
:1011D00090915D01892B09F580915A0190915B01F5
:1011E0000197D9F48091580190915901892BA9F464
:1011F0008091560190915701019779F480915401A3
:1012000090915501019749F48AE70E94CA018DE443
:1012100091E00E9490020E94490280915E019091AB
:101220005F01892B39F580915C0190915D010197F7
:1012300009F580915A0190915B01892BD9F4809135
:10124000580190915901892BA9F4809156019091F0
:101250005701892B79F48091540190915501892B84
:1012600049F480E20E94CA018FE491E00E9490025A
:101270000E94490280915E0190915F01892B29F5BE
:1012800080915C0190915D01892BF9F480915A0164
:1012900090915B010197C9F4809158019091590197
:1012A000892B99F48091560190915701892B69F40B
:1012B0008091540190915501892B39F48EE20E945E
:1012C000CA0181E591E00E9490020E94490289E0F2
:1012D0000E94FF01019711F40E9449028AE00E94D6
:1012E000FF01019741F540910A0250910B02609174
:1012F00006027091070289E691E00E94DD0090E00D
:1013000080E00E9462022091060230910702811162
:101310001DC02115310519F0C9010E94920A1092D1
:1013200007021092060210920B0210920A0210920B
:10133000090210920802209709F49BCA0E944701F3
:10134000882309F496CA0E94000093CA10920B02E7
:1013500010920A026AE171E0C9010E94E10BEBCF31
:101360008091060290910702009711F00C94920A66
:1013700008952F923F924F925F926F927F928F9239
:101380009F92AF92BF92CF92DF92EF92FF920F9314
:101390001F93CF93DF93CDB7DEB7CA1BDB0B0FB61E
:1013A000F894DEBF0FBECDBF09942A8839884888DB
:1013B0005F846E847D848C849B84AA84B984C88471
:1013C000DF80EE80FD800C811B81AA81B981CE0F68
:1013D000D11D0FB6F894DEBF0FBECDBFED0108954D
:1013E000EE0FFF1F0590F491E02D09940F931F93CA
:1013F000CF93DF938230910510F482E090E0E0918A
:101400000E02F0910F0230E020E0B0E0A0E0309753
:1014100099F42115310509F44AC0281B390B2430F1
:101420003105D8F58A819B816115710589F1FB0130
:1014300093838283FE0111C0408151810281138117
:1014400048175907E0F04817590799F4109761F0C9
:1014500012960C93129713961C933296CF01DF913C
:10146000CF911F910F91089500930E0210930F02D8
:10147000F4CF2115310551F04217530738F0A90177
:10148000DB019A01BD01DF01F801C1CFEF01F9CF06
:1014900090930F0280930E02CDCFFE01E20FF31F57
:1014A000819391932250310939832883D7CF20919A
:1014B0000C0230910D02232B41F420910201309156
:1014C000030130930D0220930C0220910001309112
:1014D00001012115310541F42DB73EB740910401BA
:1014E00050910501241B350BE0910C02F0910D0287
:1014F000E217F307A0F42E1B3F0B2817390778F0EB
:10150000AC014E5F5F4F2417350748F04E0F5F1F49
:1015100050930D0240930C02819391939FCFF0E082
:10152000E0E09CCFCF93DF930097E9F0FC01329786
:1015300013821282A0910E02B0910F02ED0130E0F1
:1015400020E01097A1F420813181820F931F209118
:101550000C0230910D022817390709F061C0F09391
:101560000D02E0930C02DF91CF910895EA01CE17AE
:10157000DF07E8F54A815B819E0141155105B1F70E
:10158000E901FB83EA8349915991C40FD51FEC17F8
:10159000FD0761F4808191810296840F951FE90116
:1015A00099838883828193819B838A83F0E0E0E042
:1015B00012968D919C9113970097B9F52D913C91BE
:1015C0001197CD010296820F931F20910C0230914A
:1015D0000D022817390739F6309751F510920F028E
:1015E00010920E02B0930D02A0930C02BCCFD383D5
:1015F000C28340815181840F951FC817D90761F4B8
:101600004E5F5F4F88819981480F591F51834083F6
:101610008A819B81938382832115310509F0B0CFA4
:10162000F0930F02E0930E029ECFFD01DC01C0CFCC
:1016300013821282D7CFB0E0A0E0E1E2FBE00C948D
:10164000BB098C01009751F4CB010E94F6098C0173
:10165000C801CDB7DEB7E0E10C94D709FC01E60F75
:10166000F71F9C0122503109E217F30708F49DC0CF
:10167000D901CD91DC911197C617D70798F0C530E5
:10168000D10530F3CE0104978617970708F3C61BE0
:10169000D70B2297C193D1936D937C93CF010E9476
:1016A000920AD6CF5B01AC1ABD0A4C018C0E9D1E6E
:1016B000A0910E02B0910F02512C412CF12CE12C83
:1016C000109731F580910C0290910D0288159905C3
:1016D00009F05CC04616570608F058C0809100011A
:1016E00090910101009741F48DB79EB7409104019C
:1016F00050910501841B950BE817F90708F055C0B8
:10170000F0930D02E0930C02F90171836083A0CF86
:101710008D919C91119712966C90129713967C90D4
:101720001397A815B90559F56C0142E0C40ED11CF8
:10173000CA14DB0420F1AC014A195B09DA011296E4
:10174000159780F06282738251834083D9016D9333
:101750007C93E114F10471F0D7011396FC93EE939E
:10176000129776CF22968C0F9D1FF901918380836B
:10177000F301EFCFF0930F02E0930E0269CF48160A
:10178000590608F42C017D01D3019ACFCB010E94A8
:10179000F6097C01009749F0AE01B8010E94D80B10
:1017A000C8010E94920A870153CF10E000E050CF99
:1017B000FB01DC0102C001900D9241505040D8F76E
:1017C0000895FB01DC0101900D920020E1F70895DE
:1017D00010E0C2E6D0E004C0FE010E94F0092196AC
:1017E000C336D107C9F7F894FFCF0000100280007C
:1017F000000000007D01DD000A01DF013B0119014D
:101800002D010D0A0061006200630064006500663E
:10181000006700680069006A006B006C006D006E74
:10182000006F007000710072007300740075007624
:0E183000007700780079007A0020002E00007A
:107E0000112484B714BE81FFF0D085E080938100F7
:107E100082E08093C00088E18093C10086E0809377
:107E2000C20080E18093C4008EE0C9D0259A86E02C
:107E300020E33CEF91E0309385002093840096BBD3
:107E4000B09BFECF1D9AA8958150A9F7CC24DD24C4
:107E500088248394B5E0AB2EA1E19A2EF3E0BF2EE7
:107E6000A2D0813461F49FD0082FAFD0023811F036
:107E7000013811F484E001C083E08DD089C08234E0
:107E800011F484E103C0853419F485E0A6D080C0E4
:107E9000853579F488D0E82EFF2485D0082F10E0AE
:107EA000102F00270E291F29000F111F8ED06801E7
:107EB0006FC0863521F484E090D080E0DECF843638
:107EC00009F040C070D06FD0082F6DD080E0C81688
:107ED00080E7D80618F4F601B7BEE895C0E0D1E017
:107EE00062D089930C17E1F7F0E0CF16F0E7DF06D8
:107EF00018F0F601B7BEE89568D007B600FCFDCFD4
:107F0000A601A0E0B1E02C9130E011968C91119780
:107F100090E0982F8827822B932B1296FA010C0160
:107F200087BEE89511244E5F5F4FF1E0A038BF0790
:107F300051F7F601A7BEE89507B600FCFDCF97BE46
:107F4000E89526C08437B1F42ED02DD0F82E2BD052
:107F50003CD0F601EF2C8F010F5F1F4F84911BD097
:107F6000EA94F801C1F70894C11CD11CFA94CF0C13
:107F7000D11C0EC0853739F428D08EE10CD085E9AC
:107F80000AD08FE07ACF813511F488E018D01DD067
:107F900080E101D065CF982F8091C00085FFFCCF94
:107FA0009093C60008958091C00087FFFCCF809118
:107FB000C00084FD01C0A8958091C6000895E0E648
:107FC000F0E098E1908380830895EDDF803219F02E
:107FD00088E0F5DFFFCF84E1DECF1F93182FE3DFCA
:107FE0001150E9F7F2DF1F91089580E0E8DFEE27F6
:047FF000FF270994CA
:027FFE00040479
:00000001FF
